{
  "contractName": "Distributor",
  "abi": [
    {
      "constant": false,
      "inputs": [],
      "name": "renounceOwnership",
      "outputs": [],
      "payable": false,
      "stateMutability": "nonpayable",
      "type": "function"
    },
    {
      "constant": true,
      "inputs": [],
      "name": "owner",
      "outputs": [
        {
          "name": "",
          "type": "address"
        }
      ],
      "payable": false,
      "stateMutability": "view",
      "type": "function"
    },
    {
      "constant": false,
      "inputs": [
        {
          "name": "newOwner",
          "type": "address"
        }
      ],
      "name": "transferOwnership",
      "outputs": [],
      "payable": false,
      "stateMutability": "nonpayable",
      "type": "function"
    },
    {
      "inputs": [
        {
          "name": "_heyTokenAddress",
          "type": "address"
        },
        {
          "name": "_socialNetworkAddress",
          "type": "address"
        }
      ],
      "payable": false,
      "stateMutability": "nonpayable",
      "type": "constructor"
    },
    {
      "anonymous": false,
      "inputs": [
        {
          "indexed": false,
          "name": "slot",
          "type": "uint256"
        }
      ],
      "name": "Catchall",
      "type": "event"
    },
    {
      "anonymous": false,
      "inputs": [
        {
          "indexed": true,
          "name": "previousOwner",
          "type": "address"
        }
      ],
      "name": "OwnershipRenounced",
      "type": "event"
    },
    {
      "anonymous": false,
      "inputs": [
        {
          "indexed": true,
          "name": "previousOwner",
          "type": "address"
        },
        {
          "indexed": true,
          "name": "newOwner",
          "type": "address"
        }
      ],
      "name": "OwnershipTransferred",
      "type": "event"
    },
    {
      "constant": false,
      "inputs": [],
      "name": "distributeRewards",
      "outputs": [],
      "payable": false,
      "stateMutability": "nonpayable",
      "type": "function"
    }
  ],
  "bytecode": "0x608060405234801561001057600080fd5b506040516040806108e28339810180604052810190808051906020019092919080519060200190929190505050336000806101000a81548173ffffffffffffffffffffffffffffffffffffffff021916908373ffffffffffffffffffffffffffffffffffffffff16021790555081600260006101000a81548173ffffffffffffffffffffffffffffffffffffffff021916908373ffffffffffffffffffffffffffffffffffffffff16021790555080600160006101000a81548173ffffffffffffffffffffffffffffffffffffffff021916908373ffffffffffffffffffffffffffffffffffffffff16021790555050506107d2806101106000396000f300608060405260043610610062576000357c0100000000000000000000000000000000000000000000000000000000900463ffffffff1680636f4a2cd014610067578063715018a61461007e5780638da5cb5b14610095578063f2fde38b146100ec575b600080fd5b34801561007357600080fd5b5061007c61012f565b005b34801561008a57600080fd5b5061009361052a565b005b3480156100a157600080fd5b506100aa61062c565b604051808273ffffffffffffffffffffffffffffffffffffffff1673ffffffffffffffffffffffffffffffffffffffff16815260200191505060405180910390f35b3480156100f857600080fd5b5061012d600480360381019080803573ffffffffffffffffffffffffffffffffffffffff169060200190929190505050610651565b005b60008060008060008060009054906101000a900473ffffffffffffffffffffffffffffffffffffffff1673ffffffffffffffffffffffffffffffffffffffff163373ffffffffffffffffffffffffffffffffffffffff1614151561019257600080fd5b600160009054906101000a900473ffffffffffffffffffffffffffffffffffffffff1673ffffffffffffffffffffffffffffffffffffffff16638e53fb416040518163ffffffff167c0100000000000000000000000000000000000000000000000000000000028152600401602060405180830381600087803b15801561021857600080fd5b505af115801561022c573d6000803e3d6000fd5b505050506040513d602081101561024257600080fd5b81019080805190602001909291905050509450600093505b8484101561052357600160009054906101000a900473ffffffffffffffffffffffffffffffffffffffff1673ffffffffffffffffffffffffffffffffffffffff166393327ddb856040518263ffffffff167c010000000000000000000000000000000000000000000000000000000002815260040180828152602001915050602060405180830381600087803b1580156102f357600080fd5b505af1158015610307573d6000803e3d6000fd5b505050506040513d602081101561031d57600080fd5b81019080805190602001909291905050509250600083111561051657600160009054906101000a900473ffffffffffffffffffffffffffffffffffffffff1673ffffffffffffffffffffffffffffffffffffffff1663d077398a856040518263ffffffff167c010000000000000000000000000000000000000000000000000000000002815260040180828152602001915050602060405180830381600087803b1580156103ca57600080fd5b505af11580156103de573d6000803e3d6000fd5b505050506040513d60208110156103f457600080fd5b81019080805190602001909291905050509150670de0b6b3a764000083029050600260009054906101000a900473ffffffffffffffffffffffffffffffffffffffff1673ffffffffffffffffffffffffffffffffffffffff1663a9059cbb83836040518363ffffffff167c0100000000000000000000000000000000000000000000000000000000028152600401808373ffffffffffffffffffffffffffffffffffffffff1673ffffffffffffffffffffffffffffffffffffffff16815260200182815260200192505050602060405180830381600087803b1580156104d957600080fd5b505af11580156104ed573d6000803e3d6000fd5b505050506040513d602081101561050357600080fd5b8101908080519060200190929190505050505b838060010194505061025a565b5050505050565b6000809054906101000a900473ffffffffffffffffffffffffffffffffffffffff1673ffffffffffffffffffffffffffffffffffffffff163373ffffffffffffffffffffffffffffffffffffffff1614151561058557600080fd5b6000809054906101000a900473ffffffffffffffffffffffffffffffffffffffff1673ffffffffffffffffffffffffffffffffffffffff167ff8df31144d9c2f0f6b59d69b8b98abd5459d07f2742c4df920b25aae33c6482060405160405180910390a260008060006101000a81548173ffffffffffffffffffffffffffffffffffffffff021916908373ffffffffffffffffffffffffffffffffffffffff160217905550565b6000809054906101000a900473ffffffffffffffffffffffffffffffffffffffff1681565b6000809054906101000a900473ffffffffffffffffffffffffffffffffffffffff1673ffffffffffffffffffffffffffffffffffffffff163373ffffffffffffffffffffffffffffffffffffffff161415156106ac57600080fd5b600073ffffffffffffffffffffffffffffffffffffffff168173ffffffffffffffffffffffffffffffffffffffff16141515156106e857600080fd5b8073ffffffffffffffffffffffffffffffffffffffff166000809054906101000a900473ffffffffffffffffffffffffffffffffffffffff1673ffffffffffffffffffffffffffffffffffffffff167f8be0079c531659141344cd1fd0a4f28419497f9722a3daafe3b4186f6b6457e060405160405180910390a3806000806101000a81548173ffffffffffffffffffffffffffffffffffffffff021916908373ffffffffffffffffffffffffffffffffffffffff160217905550505600a165627a7a7230582048d61a8205b18cba840219e2df3f1f878f34d54a63998daa2eae6e6a022d7bbb0029",
  "source": "pragma solidity ^0.4.24;\n\nimport \"../network/SocialNetwork.sol\";\nimport \"../token/HeyToken.sol\";\nimport \"../ownership/Ownable.sol\";\n\n/**\n * @title Distributor\n * @dev A very primitive implementation of rewarding schemes for likes\n * @dev Issue: for now this smart contract uses its own wallet for\n * transfers. Give it rights to execute transactions directly from the pool.\n * @dev Issue: for now the distribution is directly proportional to the\n * number of likes since genesis. Make it not directly proportional, and make\n * it consider only the time window since last distribution occurred.\n * @dev Issue: for now there is no aggregation of rewards per user before\n * transactions occur. Hence if a user deserves rewards for 3 different posts,\n * she will receive 3 separate transactions. This is highly inefficient.\n */\ncontract Distributor is Ownable {\n  SocialNetwork socialNetwork;\n  HeyToken heyToken;\n\n  event Catchall(uint slot);\n\n  /**\n   * @dev Constructor function\n   * @param _socialNetworkAddress address The address of the already deployed social\n   * network smart contract\n   * @param _heyTokenAddress address The address of the ERC20 Hey token smart\n   * contract, for which the distributor must then receive a wallet with some\n   * tokens to perform the distribution\n   */\n  constructor (address _heyTokenAddress, address _socialNetworkAddress) public {\n    heyToken = HeyToken(_heyTokenAddress);\n    socialNetwork = SocialNetwork(_socialNetworkAddress);\n  }\n\n  function distributeRewards() onlyOwner public {\n    uint numberOfPosts = socialNetwork.totalPosts();\n    uint i = 0;\n\n    // Loop through all posts, and for each do\n    for (i; i < numberOfPosts; i++) {\n      // Retrieve number of likes for the post\n      uint numberOfLikes = socialNetwork.numberOfLikesPerPost(i);\n      // Transfer an equivalent amount of HEY tokens to the post owner\n      if (numberOfLikes > 0) {\n        address beneficiary = socialNetwork.postOwner(i);\n        uint256 reward = numberOfLikes * 1e18;\n        // The distributor directly transfers from his own wallet\n        heyToken.transfer(beneficiary, reward);\n      }\n    }\n  }\n}\n",
  "sourcePath": "/Users/thomasvanderstraeten/code/hey/experiments/mvp-tva/backend-childchain/contracts/distribution/Distributor.sol",
  "compiler": {
    "name": "solc",
    "version": "0.4.24+commit.e67f0147.Emscripten.clang"
  },
  "schemaVersion": "2.0.1",
  "updatedAt": "2018-07-11T09:05:38.950Z"
}