{
  "contractName": "KarmaStore",
  "abi": [
    {
      "constant": true,
      "inputs": [
        {
          "name": "",
          "type": "bytes32"
        }
      ],
      "name": "rewardByAction",
      "outputs": [
        {
          "name": "",
          "type": "uint256"
        }
      ],
      "payable": false,
      "stateMutability": "view",
      "type": "function"
    },
    {
      "constant": true,
      "inputs": [
        {
          "name": "",
          "type": "uint256"
        }
      ],
      "name": "usersIncremented",
      "outputs": [
        {
          "name": "",
          "type": "address"
        }
      ],
      "payable": false,
      "stateMutability": "view",
      "type": "function"
    },
    {
      "constant": false,
      "inputs": [],
      "name": "renounceOwnership",
      "outputs": [],
      "payable": false,
      "stateMutability": "nonpayable",
      "type": "function"
    },
    {
      "constant": true,
      "inputs": [
        {
          "name": "",
          "type": "address"
        }
      ],
      "name": "karmaByUser",
      "outputs": [
        {
          "name": "",
          "type": "uint256"
        }
      ],
      "payable": false,
      "stateMutability": "view",
      "type": "function"
    },
    {
      "constant": true,
      "inputs": [],
      "name": "owner",
      "outputs": [
        {
          "name": "",
          "type": "address"
        }
      ],
      "payable": false,
      "stateMutability": "view",
      "type": "function"
    },
    {
      "constant": false,
      "inputs": [
        {
          "name": "newOwner",
          "type": "address"
        }
      ],
      "name": "transferOwnership",
      "outputs": [],
      "payable": false,
      "stateMutability": "nonpayable",
      "type": "function"
    },
    {
      "constant": true,
      "inputs": [
        {
          "name": "",
          "type": "address"
        }
      ],
      "name": "incrementalKarmaByUser",
      "outputs": [
        {
          "name": "",
          "type": "uint256"
        }
      ],
      "payable": false,
      "stateMutability": "view",
      "type": "function"
    },
    {
      "anonymous": false,
      "inputs": [
        {
          "indexed": false,
          "name": "by",
          "type": "address"
        },
        {
          "indexed": false,
          "name": "user",
          "type": "address"
        },
        {
          "indexed": false,
          "name": "action",
          "type": "bytes32"
        },
        {
          "indexed": false,
          "name": "karma",
          "type": "uint256"
        }
      ],
      "name": "UserRewarded",
      "type": "event"
    },
    {
      "anonymous": false,
      "inputs": [
        {
          "indexed": false,
          "name": "by",
          "type": "address"
        },
        {
          "indexed": false,
          "name": "action",
          "type": "bytes32"
        },
        {
          "indexed": false,
          "name": "karma",
          "type": "uint256"
        }
      ],
      "name": "RewardSet",
      "type": "event"
    },
    {
      "anonymous": false,
      "inputs": [
        {
          "indexed": false,
          "name": "by",
          "type": "address"
        },
        {
          "indexed": false,
          "name": "action",
          "type": "bytes32"
        },
        {
          "indexed": false,
          "name": "oldKarma",
          "type": "uint256"
        },
        {
          "indexed": false,
          "name": "newKarma",
          "type": "uint256"
        }
      ],
      "name": "RewardUpdated",
      "type": "event"
    },
    {
      "anonymous": false,
      "inputs": [
        {
          "indexed": false,
          "name": "by",
          "type": "address"
        },
        {
          "indexed": false,
          "name": "usersCount",
          "type": "uint256"
        }
      ],
      "name": "KarmaFlushed",
      "type": "event"
    },
    {
      "anonymous": false,
      "inputs": [
        {
          "indexed": true,
          "name": "previousOwner",
          "type": "address"
        }
      ],
      "name": "OwnershipRenounced",
      "type": "event"
    },
    {
      "anonymous": false,
      "inputs": [
        {
          "indexed": true,
          "name": "previousOwner",
          "type": "address"
        },
        {
          "indexed": true,
          "name": "newOwner",
          "type": "address"
        }
      ],
      "name": "OwnershipTransferred",
      "type": "event"
    },
    {
      "constant": true,
      "inputs": [
        {
          "name": "_action",
          "type": "bytes32"
        }
      ],
      "name": "getReward",
      "outputs": [
        {
          "name": "_karma",
          "type": "uint256"
        }
      ],
      "payable": false,
      "stateMutability": "view",
      "type": "function"
    },
    {
      "constant": true,
      "inputs": [
        {
          "name": "_user",
          "type": "address"
        }
      ],
      "name": "getKarma",
      "outputs": [
        {
          "name": "_karma",
          "type": "uint256"
        }
      ],
      "payable": false,
      "stateMutability": "view",
      "type": "function"
    },
    {
      "constant": true,
      "inputs": [
        {
          "name": "_user",
          "type": "address"
        }
      ],
      "name": "getIncrementalKarma",
      "outputs": [
        {
          "name": "_karma",
          "type": "uint256"
        }
      ],
      "payable": false,
      "stateMutability": "view",
      "type": "function"
    },
    {
      "constant": true,
      "inputs": [],
      "name": "getIncrementedUsersCount",
      "outputs": [
        {
          "name": "_count",
          "type": "uint256"
        }
      ],
      "payable": false,
      "stateMutability": "view",
      "type": "function"
    },
    {
      "constant": false,
      "inputs": [
        {
          "name": "_user",
          "type": "address"
        },
        {
          "name": "_action",
          "type": "bytes32"
        }
      ],
      "name": "reward",
      "outputs": [],
      "payable": false,
      "stateMutability": "nonpayable",
      "type": "function"
    },
    {
      "constant": false,
      "inputs": [
        {
          "name": "_action",
          "type": "bytes32"
        },
        {
          "name": "_karma",
          "type": "uint256"
        }
      ],
      "name": "setReward",
      "outputs": [],
      "payable": false,
      "stateMutability": "nonpayable",
      "type": "function"
    },
    {
      "constant": false,
      "inputs": [
        {
          "name": "_action",
          "type": "bytes32"
        },
        {
          "name": "_newKarma",
          "type": "uint256"
        }
      ],
      "name": "updateReward",
      "outputs": [],
      "payable": false,
      "stateMutability": "nonpayable",
      "type": "function"
    },
    {
      "constant": false,
      "inputs": [],
      "name": "flush",
      "outputs": [],
      "payable": false,
      "stateMutability": "nonpayable",
      "type": "function"
    }
  ],
  "bytecode": "0x6080604052336000806101000a81548173ffffffffffffffffffffffffffffffffffffffff021916908373ffffffffffffffffffffffffffffffffffffffff160217905550611004806100536000396000f3006080604052600436106100db576000357c0100000000000000000000000000000000000000000000000000000000900463ffffffff1680630410b80b146100e0578063324854bf146101375780633dc44e911461017257806340255194146101b757806363fed9a4146101e25780636b9f96ea1461022757806370638f701461023e578063715018a6146102ab57806388f8680b146102c25780638da5cb5b14610319578063af32ec6014610370578063d6c82a8d146103ab578063f2fde38b14610402578063f627f7fe14610445578063fb4101c01461049c575b600080fd5b3480156100ec57600080fd5b50610121600480360381019080803573ffffffffffffffffffffffffffffffffffffffff1690602001909291905050506104ed565b6040518082815260200191505060405180910390f35b34801561014357600080fd5b50610170600480360381019080803560001916906020019092919080359060200190929190505050610536565b005b34801561017e57600080fd5b506101a1600480360381019080803560001916906020019092919050505061065a565b6040518082815260200191505060405180910390f35b3480156101c357600080fd5b506101cc610672565b6040518082815260200191505060405180910390f35b3480156101ee57600080fd5b50610211600480360381019080803560001916906020019092919050505061067f565b6040518082815260200191505060405180910390f35b34801561023357600080fd5b5061023c6106a4565b005b34801561024a57600080fd5b50610269600480360381019080803590602001909291905050506108f9565b604051808273ffffffffffffffffffffffffffffffffffffffff1673ffffffffffffffffffffffffffffffffffffffff16815260200191505060405180910390f35b3480156102b757600080fd5b506102c0610937565b005b3480156102ce57600080fd5b50610303600480360381019080803573ffffffffffffffffffffffffffffffffffffffff169060200190929190505050610a39565b6040518082815260200191505060405180910390f35b34801561032557600080fd5b5061032e610a51565b604051808273ffffffffffffffffffffffffffffffffffffffff1673ffffffffffffffffffffffffffffffffffffffff16815260200191505060405180910390f35b34801561037c57600080fd5b506103a9600480360381019080803560001916906020019092919080359060200190929190505050610a76565b005b3480156103b757600080fd5b506103ec600480360381019080803573ffffffffffffffffffffffffffffffffffffffff169060200190929190505050610ba8565b6040518082815260200191505060405180910390f35b34801561040e57600080fd5b50610443600480360381019080803573ffffffffffffffffffffffffffffffffffffffff169060200190929190505050610bf1565b005b34801561045157600080fd5b50610486600480360381019080803573ffffffffffffffffffffffffffffffffffffffff169060200190929190505050610d46565b6040518082815260200191505060405180910390f35b3480156104a857600080fd5b506104eb600480360381019080803573ffffffffffffffffffffffffffffffffffffffff1690602001909291908035600019169060200190929190505050610d5e565b005b6000600360008373ffffffffffffffffffffffffffffffffffffffff1673ffffffffffffffffffffffffffffffffffffffff168152602001908152602001600020549050919050565b6000809054906101000a900473ffffffffffffffffffffffffffffffffffffffff1673ffffffffffffffffffffffffffffffffffffffff163373ffffffffffffffffffffffffffffffffffffffff1614151561059157600080fd5b6000600160008460001916600019168152602001908152602001600020541415156105bb57600080fd5b80600160008460001916600019168152602001908152602001600020819055507f56bae4951f57868b40fd9d6298731a923ece6738d22cdd6aa801480889cd4433338383604051808473ffffffffffffffffffffffffffffffffffffffff1673ffffffffffffffffffffffffffffffffffffffff1681526020018360001916600019168152602001828152602001935050505060405180910390a15050565b60016020528060005260406000206000915090505481565b6000600480549050905090565b6000600160008360001916600019168152602001908152602001600020549050919050565b60008060008060009054906101000a900473ffffffffffffffffffffffffffffffffffffffff1673ffffffffffffffffffffffffffffffffffffffff163373ffffffffffffffffffffffffffffffffffffffff1614151561070457600080fd5b6004805490509250600091505b8282101561087b5760048281548110151561072857fe5b9060005260206000200160009054906101000a900473ffffffffffffffffffffffffffffffffffffffff1690506107e6600360008373ffffffffffffffffffffffffffffffffffffffff1673ffffffffffffffffffffffffffffffffffffffff16815260200190815260200160002054600260008473ffffffffffffffffffffffffffffffffffffffff1673ffffffffffffffffffffffffffffffffffffffff16815260200190815260200160002054610f7690919063ffffffff16565b600260008373ffffffffffffffffffffffffffffffffffffffff1673ffffffffffffffffffffffffffffffffffffffff168152602001908152602001600020819055506000600360008373ffffffffffffffffffffffffffffffffffffffff1673ffffffffffffffffffffffffffffffffffffffff168152602001908152602001600020819055508180600101925050610711565b600460006108899190610f92565b7f7a1afc9a792ff01d0823c9969531cf4a4ab41a6e920a47ba4f68b2f1459ce4c13384604051808373ffffffffffffffffffffffffffffffffffffffff1673ffffffffffffffffffffffffffffffffffffffff1681526020018281526020019250505060405180910390a1505050565b60048181548110151561090857fe5b906000526020600020016000915054906101000a900473ffffffffffffffffffffffffffffffffffffffff1681565b6000809054906101000a900473ffffffffffffffffffffffffffffffffffffffff1673ffffffffffffffffffffffffffffffffffffffff163373ffffffffffffffffffffffffffffffffffffffff1614151561099257600080fd5b6000809054906101000a900473ffffffffffffffffffffffffffffffffffffffff1673ffffffffffffffffffffffffffffffffffffffff167ff8df31144d9c2f0f6b59d69b8b98abd5459d07f2742c4df920b25aae33c6482060405160405180910390a260008060006101000a81548173ffffffffffffffffffffffffffffffffffffffff021916908373ffffffffffffffffffffffffffffffffffffffff160217905550565b60026020528060005260406000206000915090505481565b6000809054906101000a900473ffffffffffffffffffffffffffffffffffffffff1681565b60008060009054906101000a900473ffffffffffffffffffffffffffffffffffffffff1673ffffffffffffffffffffffffffffffffffffffff163373ffffffffffffffffffffffffffffffffffffffff16141515610ad357600080fd5b600160008460001916600019168152602001908152602001600020549050600081111515610b0057600080fd5b81600160008560001916600019168152602001908152602001600020819055507fdb06aa9184359310b0fee6307923609027932e8601f52586a0e0b7d7a6e5642633848385604051808573ffffffffffffffffffffffffffffffffffffffff1673ffffffffffffffffffffffffffffffffffffffff168152602001846000191660001916815260200183815260200182815260200194505050505060405180910390a1505050565b6000600260008373ffffffffffffffffffffffffffffffffffffffff1673ffffffffffffffffffffffffffffffffffffffff168152602001908152602001600020549050919050565b6000809054906101000a900473ffffffffffffffffffffffffffffffffffffffff1673ffffffffffffffffffffffffffffffffffffffff163373ffffffffffffffffffffffffffffffffffffffff16141515610c4c57600080fd5b600073ffffffffffffffffffffffffffffffffffffffff168173ffffffffffffffffffffffffffffffffffffffff1614151515610c8857600080fd5b8073ffffffffffffffffffffffffffffffffffffffff166000809054906101000a900473ffffffffffffffffffffffffffffffffffffffff1673ffffffffffffffffffffffffffffffffffffffff167f8be0079c531659141344cd1fd0a4f28419497f9722a3daafe3b4186f6b6457e060405160405180910390a3806000806101000a81548173ffffffffffffffffffffffffffffffffffffffff021916908373ffffffffffffffffffffffffffffffffffffffff16021790555050565b60036020528060005260406000206000915090505481565b60006001600083600019166000191681526020019081526020016000205490506000600360008573ffffffffffffffffffffffffffffffffffffffff1673ffffffffffffffffffffffffffffffffffffffff168152602001908152602001600020541415610e2d5760048390806001815401808255809150509060018203906000526020600020016000909192909190916101000a81548173ffffffffffffffffffffffffffffffffffffffff021916908373ffffffffffffffffffffffffffffffffffffffff160217905550505b610e7f81600360008673ffffffffffffffffffffffffffffffffffffffff1673ffffffffffffffffffffffffffffffffffffffff16815260200190815260200160002054610f7690919063ffffffff16565b600360008573ffffffffffffffffffffffffffffffffffffffff1673ffffffffffffffffffffffffffffffffffffffff168152602001908152602001600020819055507fa5d168eb715de6561745b5a5f34aabf92f76fd5c7e73a9c46aa2fb70d19d42bb33848484604051808573ffffffffffffffffffffffffffffffffffffffff1673ffffffffffffffffffffffffffffffffffffffff1681526020018473ffffffffffffffffffffffffffffffffffffffff1673ffffffffffffffffffffffffffffffffffffffff168152602001836000191660001916815260200182815260200194505050505060405180910390a1505050565b60008183019050828110151515610f8957fe5b80905092915050565b5080546000825590600052602060002090810190610fb09190610fb3565b50565b610fd591905b80821115610fd1576000816000905550600101610fb9565b5090565b905600a165627a7a723058204d6bd2db3fea3a9df8e481ded02a59a5c22361ee684d2b90797354dd9ced69510029",
  "source": "pragma solidity ^0.4.24;\n\nimport \"../ownership/Ownable.sol\";\nimport \"../math/SafeMath.sol\";\n\n/**\n* @title KarmaStore\n* @dev An MVP implementation of the Karma Store\n*/\ncontract KarmaStore is Ownable{\n  using SafeMath for uint256;\n\n  /*\n  ██╗   ██╗ █████╗ ██████╗ ██╗ █████╗ ██████╗ ██╗     ███████╗███████╗\n  ██║   ██║██╔══██╗██╔══██╗██║██╔══██╗██╔══██╗██║     ██╔════╝██╔════╝\n  ██║   ██║███████║██████╔╝██║███████║██████╔╝██║     █████╗  ███████╗\n  ██║   ██║██╔══██║██╔══██╗██║██╔══██║██╔══██╗██║     ██╔══╝  ╚════██║\n   ╚████╔╝ ██║  ██║██║  ██║██║██║  ██║██████╔╝███████╗███████╗███████║\n    ╚═══╝  ╚═╝  ╚═╝╚═╝  ╚═╝╚═╝╚═╝  ╚═╝╚═════╝ ╚══════╝╚══════╝╚══════╝\n  */\n  // Mapping of Karma earnings per type of action\n  mapping (bytes32 => uint256) public rewardByAction;\n  // Mapping of all-time Karma by user\n  mapping (address => uint256) public karmaByUser;\n  // Mapping of incremental Karma since last iteration by user\n  mapping (address => uint256) public incrementalKarmaByUser;\n  // List of users that received karma since last iteration\n  address[] public usersIncremented;\n\n  /*\n  ███████╗██╗   ██╗███████╗███╗   ██╗████████╗███████╗\n  ██╔════╝██║   ██║██╔════╝████╗  ██║╚══██╔══╝██╔════╝\n  █████╗  ██║   ██║█████╗  ██╔██╗ ██║   ██║   ███████╗\n  ██╔══╝  ██║   ██║██╔══╝  ██║╚██╗██║   ██║   ╚════██║\n  ███████╗ ╚████╔╝ ███████╗██║ ╚████║   ██║   ███████║\n  ╚══════╝  ╚═══╝  ╚══════╝╚═╝  ╚═══╝   ╚═╝   ╚══════╝\n  */\n  event UserRewarded(address by, address user, bytes32 action, uint256 karma);\n  event RewardSet(address by, bytes32 action, uint256 karma);\n  event RewardUpdated(address by, bytes32 action, uint256 oldKarma, uint256 newKarma);\n  event KarmaFlushed(address by, uint256 usersCount);\n\n  /*\n   ██████╗ ███████╗████████╗████████╗███████╗██████╗ ███████╗\n  ██╔════╝ ██╔════╝╚══██╔══╝╚══██╔══╝██╔════╝██╔══██╗██╔════╝\n  ██║ ████╗█████╗     ██║      ██║   █████╗  ██████╔╝███████╗\n  ██║   ██║██╔══╝     ██║      ██║   ██╔══╝  ██╔══██╗╚════██║\n  ╚██████╔╝███████╗   ██║      ██║   ███████╗██║  ██║███████║\n  ╚═════╝ ╚══════╝   ╚═╝      ╚═╝   ╚══════╝╚═╝  ╚═╝╚══════╝\n  */\n  function getReward(bytes32 _action) public view returns(uint256 _karma) {\n    _karma = rewardByAction[_action];\n  }\n\n  function getKarma(address _user) public view returns(uint256 _karma) {\n    _karma = karmaByUser[_user];\n  }\n\n  function getIncrementalKarma(address _user) public view returns(uint256 _karma) {\n    _karma = incrementalKarmaByUser[_user];\n  }\n\n  function getIncrementedUsersCount() public view returns(uint256 _count) {\n    _count = usersIncremented.length;\n  }\n\n  /*\n  ██╗   ██╗███████╗███████╗██████╗ ███████╗\n  ██║   ██║██╔════╝██╔════╝██╔══██╗██╔════╝\n  ██║   ██║███████╗█████╗  ██████╔╝███████╗\n  ██║   ██║╚════██║██╔══╝  ██╔══██╗╚════██║\n  ╚██████╔╝███████║███████╗██║  ██║███████║\n   ╚═════╝ ╚══════╝╚══════╝╚═╝  ╚═╝╚══════╝\n  */\n  function reward(address _user, bytes32 _action) public {\n    uint256 karma = rewardByAction[_action];\n    // Flag the user as having been incremented during this iteration\n    if (incrementalKarmaByUser[_user] == 0){\n      usersIncremented.push(_user);\n    }\n    incrementalKarmaByUser[_user] = incrementalKarmaByUser[_user].add(karma);\n    emit UserRewarded(msg.sender, _user, _action, karma);\n  }\n\n  /*\n   █████╗ ██████╗ ███╗   ███╗██╗███╗   ██╗\n  ██╔══██╗██╔══██╗████╗ ████║██║████╗  ██║\n  ███████║██║  ██║██╔████╔██║██║██╔██╗ ██║\n  ██╔══██║██║  ██║██║╚██╔╝██║██║██║╚██╗██║\n  ██║  ██║██████╔╝██║ ╚═╝ ██║██║██║ ╚████║\n  ╚═╝  ╚═╝╚═════╝ ╚═╝     ╚═╝╚═╝╚═╝  ╚═══╝\n  */\n  function setReward(bytes32 _action, uint256 _karma) public onlyOwner {\n    // Prevent the overriding of an existing action\n    require(rewardByAction[_action] == 0);\n    rewardByAction[_action] = _karma;\n    emit RewardSet(msg.sender, _action, _karma);\n  }\n\n  function updateReward(bytes32 _action, uint256 _newKarma) public onlyOwner {\n    // Ensure the action already exists, to prevent a new action being created\n    // if the spelling of the action to update is not correct.\n    uint256 oldKarma = rewardByAction[_action];\n    require(oldKarma > 0);\n    rewardByAction[_action] = _newKarma;\n    emit RewardUpdated(msg.sender, _action, oldKarma,  _newKarma);\n  }\n\n  function flush() public onlyOwner {\n    uint256 usersCount = usersIncremented.length;\n    // For each user that has been incremented in the last iteration\n    for (uint i=0; i<usersCount; i++) {\n      // Retrieve the user address\n      address user = usersIncremented[i];\n      // Increment the all-time user karma with the karma recently earned\n      karmaByUser[user] = karmaByUser[user].add(incrementalKarmaByUser[user]);\n      // Reset the user's incremental karma\n      incrementalKarmaByUser[user] = 0;\n    }\n    // Empty the incremented users array (reset it to its initial empty value)\n    delete usersIncremented;\n    // Broadcast successful flushing to the world\n    emit KarmaFlushed(msg.sender, usersCount);\n  }\n}\n",
  "sourcePath": "/Users/thomasvanderstraeten/code/hey/sidechain-mvp/sidechain/contracts/karma/KarmaStore.sol",
  "compiler": {
    "name": "solc",
    "version": "0.4.24+commit.e67f0147.Emscripten.clang"
  },
  "schemaVersion": "2.0.1",
  "updatedAt": "2018-08-28T09:40:31.386Z"
}