{
  "contractName": "KarmaStore",
  "abi": [
    {
      "constant": true,
      "inputs": [
        {
          "name": "",
          "type": "bytes32"
        }
      ],
      "name": "rewardByAction",
      "outputs": [
        {
          "name": "",
          "type": "uint256"
        }
      ],
      "payable": false,
      "stateMutability": "view",
      "type": "function"
    },
    {
      "constant": true,
      "inputs": [],
      "name": "totalIncrementalKarma",
      "outputs": [
        {
          "name": "",
          "type": "uint256"
        }
      ],
      "payable": false,
      "stateMutability": "view",
      "type": "function"
    },
    {
      "constant": true,
      "inputs": [
        {
          "name": "",
          "type": "uint256"
        }
      ],
      "name": "usersIncremented",
      "outputs": [
        {
          "name": "",
          "type": "address"
        }
      ],
      "payable": false,
      "stateMutability": "view",
      "type": "function"
    },
    {
      "constant": false,
      "inputs": [],
      "name": "renounceOwnership",
      "outputs": [],
      "payable": false,
      "stateMutability": "nonpayable",
      "type": "function"
    },
    {
      "constant": true,
      "inputs": [
        {
          "name": "",
          "type": "address"
        }
      ],
      "name": "karmaByUser",
      "outputs": [
        {
          "name": "",
          "type": "uint256"
        }
      ],
      "payable": false,
      "stateMutability": "view",
      "type": "function"
    },
    {
      "constant": true,
      "inputs": [],
      "name": "owner",
      "outputs": [
        {
          "name": "",
          "type": "address"
        }
      ],
      "payable": false,
      "stateMutability": "view",
      "type": "function"
    },
    {
      "constant": false,
      "inputs": [
        {
          "name": "newOwner",
          "type": "address"
        }
      ],
      "name": "transferOwnership",
      "outputs": [],
      "payable": false,
      "stateMutability": "nonpayable",
      "type": "function"
    },
    {
      "constant": true,
      "inputs": [
        {
          "name": "",
          "type": "address"
        }
      ],
      "name": "incrementalKarmaByUser",
      "outputs": [
        {
          "name": "",
          "type": "uint256"
        }
      ],
      "payable": false,
      "stateMutability": "view",
      "type": "function"
    },
    {
      "anonymous": false,
      "inputs": [
        {
          "indexed": false,
          "name": "by",
          "type": "address"
        },
        {
          "indexed": false,
          "name": "user",
          "type": "address"
        },
        {
          "indexed": false,
          "name": "action",
          "type": "bytes32"
        },
        {
          "indexed": false,
          "name": "modelId",
          "type": "bytes32"
        },
        {
          "indexed": false,
          "name": "karma",
          "type": "uint256"
        }
      ],
      "name": "UserRewarded",
      "type": "event"
    },
    {
      "anonymous": false,
      "inputs": [
        {
          "indexed": false,
          "name": "by",
          "type": "address"
        },
        {
          "indexed": false,
          "name": "action",
          "type": "bytes32"
        },
        {
          "indexed": false,
          "name": "karma",
          "type": "uint256"
        }
      ],
      "name": "RewardSet",
      "type": "event"
    },
    {
      "anonymous": false,
      "inputs": [
        {
          "indexed": false,
          "name": "by",
          "type": "address"
        },
        {
          "indexed": false,
          "name": "action",
          "type": "bytes32"
        },
        {
          "indexed": false,
          "name": "oldKarma",
          "type": "uint256"
        },
        {
          "indexed": false,
          "name": "newKarma",
          "type": "uint256"
        }
      ],
      "name": "RewardUpdated",
      "type": "event"
    },
    {
      "anonymous": false,
      "inputs": [
        {
          "indexed": false,
          "name": "by",
          "type": "address"
        },
        {
          "indexed": false,
          "name": "usersCount",
          "type": "uint256"
        }
      ],
      "name": "KarmaFlushed",
      "type": "event"
    },
    {
      "anonymous": false,
      "inputs": [
        {
          "indexed": true,
          "name": "previousOwner",
          "type": "address"
        }
      ],
      "name": "OwnershipRenounced",
      "type": "event"
    },
    {
      "anonymous": false,
      "inputs": [
        {
          "indexed": true,
          "name": "previousOwner",
          "type": "address"
        },
        {
          "indexed": true,
          "name": "newOwner",
          "type": "address"
        }
      ],
      "name": "OwnershipTransferred",
      "type": "event"
    },
    {
      "constant": true,
      "inputs": [
        {
          "name": "_action",
          "type": "bytes32"
        }
      ],
      "name": "getReward",
      "outputs": [
        {
          "name": "_karma",
          "type": "uint256"
        }
      ],
      "payable": false,
      "stateMutability": "view",
      "type": "function"
    },
    {
      "constant": true,
      "inputs": [
        {
          "name": "_user",
          "type": "address"
        }
      ],
      "name": "getKarma",
      "outputs": [
        {
          "name": "_karma",
          "type": "uint256"
        }
      ],
      "payable": false,
      "stateMutability": "view",
      "type": "function"
    },
    {
      "constant": true,
      "inputs": [
        {
          "name": "_user",
          "type": "address"
        }
      ],
      "name": "getIncrementalKarma",
      "outputs": [
        {
          "name": "_karma",
          "type": "uint256"
        }
      ],
      "payable": false,
      "stateMutability": "view",
      "type": "function"
    },
    {
      "constant": true,
      "inputs": [],
      "name": "getIncrementedUsersCount",
      "outputs": [
        {
          "name": "_count",
          "type": "uint256"
        }
      ],
      "payable": false,
      "stateMutability": "view",
      "type": "function"
    },
    {
      "constant": false,
      "inputs": [
        {
          "name": "_user",
          "type": "address"
        },
        {
          "name": "_action",
          "type": "bytes32"
        },
        {
          "name": "_modelId",
          "type": "bytes32"
        }
      ],
      "name": "reward",
      "outputs": [],
      "payable": false,
      "stateMutability": "nonpayable",
      "type": "function"
    },
    {
      "constant": false,
      "inputs": [
        {
          "name": "_action",
          "type": "bytes32"
        },
        {
          "name": "_karma",
          "type": "uint256"
        }
      ],
      "name": "setReward",
      "outputs": [],
      "payable": false,
      "stateMutability": "nonpayable",
      "type": "function"
    },
    {
      "constant": false,
      "inputs": [
        {
          "name": "_action",
          "type": "bytes32"
        },
        {
          "name": "_newKarma",
          "type": "uint256"
        }
      ],
      "name": "updateReward",
      "outputs": [],
      "payable": false,
      "stateMutability": "nonpayable",
      "type": "function"
    },
    {
      "constant": false,
      "inputs": [],
      "name": "flush",
      "outputs": [],
      "payable": false,
      "stateMutability": "nonpayable",
      "type": "function"
    }
  ],
  "bytecode": "0x6080604052336000806101000a81548173ffffffffffffffffffffffffffffffffffffffff021916908373ffffffffffffffffffffffffffffffffffffffff16021790555061117a806100536000396000f3006080604052600436106100e6576000357c0100000000000000000000000000000000000000000000000000000000900463ffffffff1680630410b80b146100eb578063324854bf146101425780633dc44e911461017d57806340255194146101c257806363fed9a4146101ed5780636b9f96ea146102325780636bbbfff61461024957806370638f7014610274578063715018a6146102e157806388f8680b146102f85780638da5cb5b1461034f578063af32ec60146103a6578063d6c82a8d146103e1578063f2fde38b14610438578063f627f7fe1461047b578063fc33f1d5146104d2575b600080fd5b3480156100f757600080fd5b5061012c600480360381019080803573ffffffffffffffffffffffffffffffffffffffff169060200190929190505050610531565b6040518082815260200191505060405180910390f35b34801561014e57600080fd5b5061017b60048036038101908080356000191690602001909291908035906020019092919050505061057a565b005b34801561018957600080fd5b506101ac600480360381019080803560001916906020019092919050505061072d565b6040518082815260200191505060405180910390f35b3480156101ce57600080fd5b506101d7610745565b6040518082815260200191505060405180910390f35b3480156101f957600080fd5b5061021c6004803603810190808035600019169060200190929190505050610752565b6040518082815260200191505060405180910390f35b34801561023e57600080fd5b50610247610777565b005b34801561025557600080fd5b5061025e6109d4565b6040518082815260200191505060405180910390f35b34801561028057600080fd5b5061029f600480360381019080803590602001909291905050506109da565b604051808273ffffffffffffffffffffffffffffffffffffffff1673ffffffffffffffffffffffffffffffffffffffff16815260200191505060405180910390f35b3480156102ed57600080fd5b506102f6610a18565b005b34801561030457600080fd5b50610339600480360381019080803573ffffffffffffffffffffffffffffffffffffffff169060200190929190505050610b1a565b6040518082815260200191505060405180910390f35b34801561035b57600080fd5b50610364610b32565b604051808273ffffffffffffffffffffffffffffffffffffffff1673ffffffffffffffffffffffffffffffffffffffff16815260200191505060405180910390f35b3480156103b257600080fd5b506103df600480360381019080803560001916906020019092919080359060200190929190505050610b57565b005b3480156103ed57600080fd5b50610422600480360381019080803573ffffffffffffffffffffffffffffffffffffffff169060200190929190505050610cf2565b6040518082815260200191505060405180910390f35b34801561044457600080fd5b50610479600480360381019080803573ffffffffffffffffffffffffffffffffffffffff169060200190929190505050610d3b565b005b34801561048757600080fd5b506104bc600480360381019080803573ffffffffffffffffffffffffffffffffffffffff169060200190929190505050610e90565b6040518082815260200191505060405180910390f35b3480156104de57600080fd5b5061052f600480360381019080803573ffffffffffffffffffffffffffffffffffffffff16906020019092919080356000191690602001909291908035600019169060200190929190505050610ea8565b005b6000600360008373ffffffffffffffffffffffffffffffffffffffff1673ffffffffffffffffffffffffffffffffffffffff168152602001908152602001600020549050919050565b6000809054906101000a900473ffffffffffffffffffffffffffffffffffffffff1673ffffffffffffffffffffffffffffffffffffffff163373ffffffffffffffffffffffffffffffffffffffff161415156105d557600080fd5b60006001600084600019166000191681526020019081526020016000205414151561068e576040517f08c379a000000000000000000000000000000000000000000000000000000000815260040180806020018281038252602e8152602001807f63616e6e6f7420736574206578697374696e67207265776172642c207573652081526020017f75706461746520696e737465616400000000000000000000000000000000000081525060400191505060405180910390fd5b80600160008460001916600019168152602001908152602001600020819055507f56bae4951f57868b40fd9d6298731a923ece6738d22cdd6aa801480889cd4433338383604051808473ffffffffffffffffffffffffffffffffffffffff1673ffffffffffffffffffffffffffffffffffffffff1681526020018360001916600019168152602001828152602001935050505060405180910390a15050565b60016020528060005260406000206000915090505481565b6000600580549050905090565b6000600160008360001916600019168152602001908152602001600020549050919050565b60008060008060009054906101000a900473ffffffffffffffffffffffffffffffffffffffff1673ffffffffffffffffffffffffffffffffffffffff163373ffffffffffffffffffffffffffffffffffffffff161415156107d757600080fd5b6005805490509250600091505b8282101561094e576005828154811015156107fb57fe5b9060005260206000200160009054906101000a900473ffffffffffffffffffffffffffffffffffffffff1690506108b9600360008373ffffffffffffffffffffffffffffffffffffffff1673ffffffffffffffffffffffffffffffffffffffff16815260200190815260200160002054600260008473ffffffffffffffffffffffffffffffffffffffff1673ffffffffffffffffffffffffffffffffffffffff168152602001908152602001600020546110ec90919063ffffffff16565b600260008373ffffffffffffffffffffffffffffffffffffffff1673ffffffffffffffffffffffffffffffffffffffff168152602001908152602001600020819055506000600360008373ffffffffffffffffffffffffffffffffffffffff1673ffffffffffffffffffffffffffffffffffffffff1681526020019081526020016000208190555081806001019250506107e4565b6005600061095c9190611108565b60006004819055507f7a1afc9a792ff01d0823c9969531cf4a4ab41a6e920a47ba4f68b2f1459ce4c13384604051808373ffffffffffffffffffffffffffffffffffffffff1673ffffffffffffffffffffffffffffffffffffffff1681526020018281526020019250505060405180910390a1505050565b60045481565b6005818154811015156109e957fe5b906000526020600020016000915054906101000a900473ffffffffffffffffffffffffffffffffffffffff1681565b6000809054906101000a900473ffffffffffffffffffffffffffffffffffffffff1673ffffffffffffffffffffffffffffffffffffffff163373ffffffffffffffffffffffffffffffffffffffff16141515610a7357600080fd5b6000809054906101000a900473ffffffffffffffffffffffffffffffffffffffff1673ffffffffffffffffffffffffffffffffffffffff167ff8df31144d9c2f0f6b59d69b8b98abd5459d07f2742c4df920b25aae33c6482060405160405180910390a260008060006101000a81548173ffffffffffffffffffffffffffffffffffffffff021916908373ffffffffffffffffffffffffffffffffffffffff160217905550565b60026020528060005260406000206000915090505481565b6000809054906101000a900473ffffffffffffffffffffffffffffffffffffffff1681565b60008060009054906101000a900473ffffffffffffffffffffffffffffffffffffffff1673ffffffffffffffffffffffffffffffffffffffff163373ffffffffffffffffffffffffffffffffffffffff16141515610bb457600080fd5b600160008460001916600019168152602001908152602001600020549050600081111515610c4a576040517f08c379a00000000000000000000000000000000000000000000000000000000081526004018080602001828103825260158152602001807f616374696f6e20646f6573206e6f74206578697374000000000000000000000081525060200191505060405180910390fd5b81600160008560001916600019168152602001908152602001600020819055507fdb06aa9184359310b0fee6307923609027932e8601f52586a0e0b7d7a6e5642633848385604051808573ffffffffffffffffffffffffffffffffffffffff1673ffffffffffffffffffffffffffffffffffffffff168152602001846000191660001916815260200183815260200182815260200194505050505060405180910390a1505050565b6000600260008373ffffffffffffffffffffffffffffffffffffffff1673ffffffffffffffffffffffffffffffffffffffff168152602001908152602001600020549050919050565b6000809054906101000a900473ffffffffffffffffffffffffffffffffffffffff1673ffffffffffffffffffffffffffffffffffffffff163373ffffffffffffffffffffffffffffffffffffffff16141515610d9657600080fd5b600073ffffffffffffffffffffffffffffffffffffffff168173ffffffffffffffffffffffffffffffffffffffff1614151515610dd257600080fd5b8073ffffffffffffffffffffffffffffffffffffffff166000809054906101000a900473ffffffffffffffffffffffffffffffffffffffff1673ffffffffffffffffffffffffffffffffffffffff167f8be0079c531659141344cd1fd0a4f28419497f9722a3daafe3b4186f6b6457e060405160405180910390a3806000806101000a81548173ffffffffffffffffffffffffffffffffffffffff021916908373ffffffffffffffffffffffffffffffffffffffff16021790555050565b60036020528060005260406000206000915090505481565b60006001600084600019166000191681526020019081526020016000205490506000600360008673ffffffffffffffffffffffffffffffffffffffff1673ffffffffffffffffffffffffffffffffffffffff168152602001908152602001600020541415610f775760058490806001815401808255809150509060018203906000526020600020016000909192909190916101000a81548173ffffffffffffffffffffffffffffffffffffffff021916908373ffffffffffffffffffffffffffffffffffffffff160217905550505b610fc981600360008773ffffffffffffffffffffffffffffffffffffffff1673ffffffffffffffffffffffffffffffffffffffff168152602001908152602001600020546110ec90919063ffffffff16565b600360008673ffffffffffffffffffffffffffffffffffffffff1673ffffffffffffffffffffffffffffffffffffffff16815260200190815260200160002081905550611021816004546110ec90919063ffffffff16565b6004819055507f1186063430627d7a8fa79b43929716f1705ea651bbc796ec27cc603650db989e3385858585604051808673ffffffffffffffffffffffffffffffffffffffff1673ffffffffffffffffffffffffffffffffffffffff1681526020018573ffffffffffffffffffffffffffffffffffffffff1673ffffffffffffffffffffffffffffffffffffffff168152602001846000191660001916815260200183600019166000191681526020018281526020019550505050505060405180910390a150505050565b600081830190508281101515156110ff57fe5b80905092915050565b50805460008255906000526020600020908101906111269190611129565b50565b61114b91905b8082111561114757600081600090555060010161112f565b5090565b905600a165627a7a723058201c6de9c1f47b6d4f9315703ff217ffbdf2dca8825db938d0c52f4093bfb5d6780029",
  "source": "pragma solidity ^0.4.24;\n\nimport \"../ownership/Ownable.sol\";\nimport \"../math/SafeMath.sol\";\n\n/**\n* @title KarmaStore\n* @dev An MVP implementation of the Karma Store\n*/\ncontract KarmaStore is Ownable{\n  using SafeMath for uint256;\n\n  /*\n  ██╗   ██╗ █████╗ ██████╗ ██╗ █████╗ ██████╗ ██╗     ███████╗███████╗\n  ██║   ██║██╔══██╗██╔══██╗██║██╔══██╗██╔══██╗██║     ██╔════╝██╔════╝\n  ██║   ██║███████║██████╔╝██║███████║██████╔╝██║     █████╗  ███████╗\n  ██║   ██║██╔══██║██╔══██╗██║██╔══██║██╔══██╗██║     ██╔══╝  ╚════██║\n   ╚████╔╝ ██║  ██║██║  ██║██║██║  ██║██████╔╝███████╗███████╗███████║\n    ╚═══╝  ╚═╝  ╚═╝╚═╝  ╚═╝╚═╝╚═╝  ╚═╝╚═════╝ ╚══════╝╚══════╝╚══════╝\n  */\n  // Mapping of Karma earnings per type of action\n  mapping (bytes32 => uint256) public rewardByAction;\n  // Mapping of all-time Karma by user\n  mapping (address => uint256) public karmaByUser;\n  // Mapping of incremental Karma since last iteration by user\n  mapping (address => uint256) public incrementalKarmaByUser;\n  // Total karma created since last iteration\n  uint256 public totalIncrementalKarma;\n  // List of users that received karma since last iteration\n  address[] public usersIncremented;\n\n  /*\n  ███████╗██╗   ██╗███████╗███╗   ██╗████████╗███████╗\n  ██╔════╝██║   ██║██╔════╝████╗  ██║╚══██╔══╝██╔════╝\n  █████╗  ██║   ██║█████╗  ██╔██╗ ██║   ██║   ███████╗\n  ██╔══╝  ██║   ██║██╔══╝  ██║╚██╗██║   ██║   ╚════██║\n  ███████╗ ╚████╔╝ ███████╗██║ ╚████║   ██║   ███████║\n  ╚══════╝  ╚═══╝  ╚══════╝╚═╝  ╚═══╝   ╚═╝   ╚══════╝\n  */\n  event UserRewarded(address by, address user, bytes32 action, bytes32 modelId, uint256 karma);\n  event RewardSet(address by, bytes32 action, uint256 karma);\n  event RewardUpdated(address by, bytes32 action, uint256 oldKarma, uint256 newKarma);\n  event KarmaFlushed(address by, uint256 usersCount);\n\n  /*\n   ██████╗ ███████╗████████╗████████╗███████╗██████╗ ███████╗\n  ██╔════╝ ██╔════╝╚══██╔══╝╚══██╔══╝██╔════╝██╔══██╗██╔════╝\n  ██║ ████╗█████╗     ██║      ██║   █████╗  ██████╔╝███████╗\n  ██║   ██║██╔══╝     ██║      ██║   ██╔══╝  ██╔══██╗╚════██║\n  ╚██████╔╝███████╗   ██║      ██║   ███████╗██║  ██║███████║\n   ╚═════╝ ╚══════╝   ╚═╝      ╚═╝   ╚══════╝╚═╝  ╚═╝╚══════╝\n  */\n  function getReward(bytes32 _action) public view returns(uint256 _karma) {\n    _karma = rewardByAction[_action];\n  }\n\n  function getKarma(address _user) public view returns(uint256 _karma) {\n    _karma = karmaByUser[_user];\n  }\n\n  function getIncrementalKarma(address _user) public view returns(uint256 _karma) {\n    _karma = incrementalKarmaByUser[_user];\n  }\n\n  function getIncrementedUsersCount() public view returns(uint256 _count) {\n    _count = usersIncremented.length;\n  }\n\n  /*\n  ██╗   ██╗███████╗███████╗██████╗ ███████╗\n  ██║   ██║██╔════╝██╔════╝██╔══██╗██╔════╝\n  ██║   ██║███████╗█████╗  ██████╔╝███████╗\n  ██║   ██║╚════██║██╔══╝  ██╔══██╗╚════██║\n  ╚██████╔╝███████║███████╗██║  ██║███████║\n   ╚═════╝ ╚══════╝╚══════╝╚═╝  ╚═╝╚══════╝\n  */\n  function reward(address _user, bytes32 _action, bytes32 _modelId) public {\n    uint256 karma = rewardByAction[_action];\n    // Flag the user as having been incremented during this iteration\n    if (incrementalKarmaByUser[_user] == 0){\n      usersIncremented.push(_user);\n    }\n    incrementalKarmaByUser[_user] = incrementalKarmaByUser[_user].add(karma);\n    totalIncrementalKarma = totalIncrementalKarma.add(karma);\n    emit UserRewarded(msg.sender, _user, _action, _modelId, karma);\n  }\n\n  /*\n   █████╗ ██████╗ ███╗   ███╗██╗███╗   ██╗\n  ██╔══██╗██╔══██╗████╗ ████║██║████╗  ██║\n  ███████║██║  ██║██╔████╔██║██║██╔██╗ ██║\n  ██╔══██║██║  ██║██║╚██╔╝██║██║██║╚██╗██║\n  ██║  ██║██████╔╝██║ ╚═╝ ██║██║██║ ╚████║\n  ╚═╝  ╚═╝╚═════╝ ╚═╝     ╚═╝╚═╝╚═╝  ╚═══╝\n  */\n  function setReward(bytes32 _action, uint256 _karma) public onlyOwner {\n    // Prevent the overriding of an existing action\n    require(rewardByAction[_action] == 0, \"cannot set existing reward, use update instead\");\n    rewardByAction[_action] = _karma;\n    emit RewardSet(msg.sender, _action, _karma);\n  }\n\n  function updateReward(bytes32 _action, uint256 _newKarma) public onlyOwner {\n    // Ensure the action already exists, to prevent a new action being created\n    // if the spelling of the action to update is not correct.\n    uint256 oldKarma = rewardByAction[_action];\n    require(oldKarma > 0, \"action does not exist\");\n    rewardByAction[_action] = _newKarma;\n    emit RewardUpdated(msg.sender, _action, oldKarma,  _newKarma);\n  }\n\n  function flush() public onlyOwner {\n    uint256 usersCount = usersIncremented.length;\n    // For each user that has been incremented in the last iteration\n    for (uint i = 0; i<usersCount; i++) {\n      // Retrieve the user address\n      address user = usersIncremented[i];\n      // Increment the all-time user karma with the karma recently earned\n      karmaByUser[user] = karmaByUser[user].add(incrementalKarmaByUser[user]);\n      // Reset the user's incremental karma\n      incrementalKarmaByUser[user] = 0;\n    }\n    // Empty the incremented users array (reset it to its initial empty value)\n    delete usersIncremented;\n    // Reset the karma count\n    totalIncrementalKarma = 0;\n    // Broadcast successful flushing to the world\n    emit KarmaFlushed(msg.sender, usersCount);\n  }\n}\n",
  "sourcePath": "/Users/thomasvanderstraeten/code/hey/sidechain/contracts/karma/KarmaStore.sol",
  "compiler": {
    "name": "solc",
    "version": "0.4.24+commit.e67f0147.Emscripten.clang"
  },
  "schemaVersion": "2.0.1",
  "updatedAt": "2018-10-16T14:45:35.442Z"
}