{
  "contractName": "SocialNetwork",
  "abi": [
    {
      "constant": true,
      "inputs": [
        {
          "name": "",
          "type": "uint256"
        }
      ],
      "name": "posts",
      "outputs": [
        {
          "name": "text",
          "type": "string"
        }
      ],
      "payable": false,
      "stateMutability": "view",
      "type": "function"
    },
    {
      "constant": true,
      "inputs": [
        {
          "name": "",
          "type": "address"
        },
        {
          "name": "",
          "type": "uint256"
        }
      ],
      "name": "postsLikedByAccount",
      "outputs": [
        {
          "name": "",
          "type": "uint256"
        }
      ],
      "payable": false,
      "stateMutability": "view",
      "type": "function"
    },
    {
      "constant": true,
      "inputs": [
        {
          "name": "",
          "type": "uint256"
        }
      ],
      "name": "postOwners",
      "outputs": [
        {
          "name": "",
          "type": "address"
        }
      ],
      "payable": false,
      "stateMutability": "view",
      "type": "function"
    },
    {
      "constant": true,
      "inputs": [
        {
          "name": "",
          "type": "address"
        },
        {
          "name": "",
          "type": "uint256"
        }
      ],
      "name": "postsFromAccount",
      "outputs": [
        {
          "name": "",
          "type": "uint256"
        }
      ],
      "payable": false,
      "stateMutability": "view",
      "type": "function"
    },
    {
      "constant": true,
      "inputs": [
        {
          "name": "",
          "type": "address"
        },
        {
          "name": "",
          "type": "uint256"
        }
      ],
      "name": "postLikedByAccount",
      "outputs": [
        {
          "name": "",
          "type": "bool"
        }
      ],
      "payable": false,
      "stateMutability": "view",
      "type": "function"
    },
    {
      "constant": true,
      "inputs": [
        {
          "name": "",
          "type": "uint256"
        },
        {
          "name": "",
          "type": "uint256"
        }
      ],
      "name": "postLikers",
      "outputs": [
        {
          "name": "",
          "type": "address"
        }
      ],
      "payable": false,
      "stateMutability": "view",
      "type": "function"
    },
    {
      "anonymous": false,
      "inputs": [
        {
          "indexed": false,
          "name": "postId",
          "type": "uint256"
        },
        {
          "indexed": false,
          "name": "owner",
          "type": "address"
        },
        {
          "indexed": false,
          "name": "text",
          "type": "string"
        }
      ],
      "name": "NewPostAdded",
      "type": "event"
    },
    {
      "anonymous": false,
      "inputs": [
        {
          "indexed": false,
          "name": "postId",
          "type": "uint256"
        },
        {
          "indexed": false,
          "name": "liker",
          "type": "address"
        }
      ],
      "name": "NewPostLiked",
      "type": "event"
    },
    {
      "constant": true,
      "inputs": [],
      "name": "hasPosts",
      "outputs": [
        {
          "name": "_hasPosts",
          "type": "bool"
        }
      ],
      "payable": false,
      "stateMutability": "view",
      "type": "function"
    },
    {
      "constant": true,
      "inputs": [],
      "name": "totalPosts",
      "outputs": [
        {
          "name": "_totalPosts",
          "type": "uint256"
        }
      ],
      "payable": false,
      "stateMutability": "view",
      "type": "function"
    },
    {
      "constant": true,
      "inputs": [],
      "name": "lastPostId",
      "outputs": [
        {
          "name": "_postId",
          "type": "uint256"
        }
      ],
      "payable": false,
      "stateMutability": "view",
      "type": "function"
    },
    {
      "constant": true,
      "inputs": [
        {
          "name": "_postId",
          "type": "uint256"
        }
      ],
      "name": "hasLikes",
      "outputs": [
        {
          "name": "_hasLikes",
          "type": "bool"
        }
      ],
      "payable": false,
      "stateMutability": "view",
      "type": "function"
    },
    {
      "constant": true,
      "inputs": [
        {
          "name": "_postId",
          "type": "uint256"
        },
        {
          "name": "_by",
          "type": "address"
        }
      ],
      "name": "likedBy",
      "outputs": [
        {
          "name": "_likedBy",
          "type": "bool"
        }
      ],
      "payable": false,
      "stateMutability": "view",
      "type": "function"
    },
    {
      "constant": true,
      "inputs": [
        {
          "name": "_postId",
          "type": "uint256"
        }
      ],
      "name": "postOwner",
      "outputs": [
        {
          "name": "_owner",
          "type": "address"
        }
      ],
      "payable": false,
      "stateMutability": "view",
      "type": "function"
    },
    {
      "constant": true,
      "inputs": [
        {
          "name": "_postId",
          "type": "uint256"
        }
      ],
      "name": "numberOfLikesPerPost",
      "outputs": [
        {
          "name": "_numberOfLikes",
          "type": "uint256"
        }
      ],
      "payable": false,
      "stateMutability": "view",
      "type": "function"
    },
    {
      "constant": true,
      "inputs": [
        {
          "name": "_poster",
          "type": "address"
        }
      ],
      "name": "numberOfLikesPerPoster",
      "outputs": [
        {
          "name": "_numberOfLikes",
          "type": "uint256"
        }
      ],
      "payable": false,
      "stateMutability": "view",
      "type": "function"
    },
    {
      "constant": false,
      "inputs": [
        {
          "name": "_text",
          "type": "string"
        }
      ],
      "name": "newPost",
      "outputs": [],
      "payable": false,
      "stateMutability": "nonpayable",
      "type": "function"
    },
    {
      "constant": false,
      "inputs": [
        {
          "name": "_postId",
          "type": "uint256"
        }
      ],
      "name": "newLike",
      "outputs": [],
      "payable": false,
      "stateMutability": "nonpayable",
      "type": "function"
    }
  ],
  "bytecode": "0x608060405234801561001057600080fd5b50610f3d806100206000396000f3006080604052600436106100e6576000357c0100000000000000000000000000000000000000000000000000000000900463ffffffff1680630b1e7f83146100eb57806323bcaae9146101915780635a9cfac8146101fa5780636dd20a45146102295780636e1f384d1461026e5780636fc66a961461029b578063735f57e4146102fc57806373d9b244146103695780638e53fb41146103c057806393327ddb146103eb578063acdc2cde1461042c578063c0a199631461048d578063c7c0149c146104f2578063d077398a14610557578063e3ca8633146105c4578063fa05546a146105ef575b600080fd5b3480156100f757600080fd5b5061011660048036038101908080359060200190929190505050610666565b6040518080602001828103825283818151815260200191508051906020019080838360005b8381101561015657808201518184015260208101905061013b565b50505050905090810190601f1680156101835780820380516001836020036101000a031916815260200191505b509250505060405180910390f35b34801561019d57600080fd5b506101f8600480360381019080803590602001908201803590602001908080601f0160208091040260200160405190810160405280939291908181526020018383808284378201915050505050509192919290505050610727565b005b34801561020657600080fd5b5061020f610928565b604051808215151515815260200191505060405180910390f35b34801561023557600080fd5b5061025460048036038101908080359060200190929190505050610937565b604051808215151515815260200191505060405180910390f35b34801561027a57600080fd5b5061029960048036038101908080359060200190929190505050610959565b005b3480156102a757600080fd5b506102e6600480360381019080803573ffffffffffffffffffffffffffffffffffffffff16906020019092919080359060200190929190505050610be7565b6040518082815260200191505060405180910390f35b34801561030857600080fd5b5061032760048036038101908080359060200190929190505050610c17565b604051808273ffffffffffffffffffffffffffffffffffffffff1673ffffffffffffffffffffffffffffffffffffffff16815260200191505060405180910390f35b34801561037557600080fd5b506103aa600480360381019080803573ffffffffffffffffffffffffffffffffffffffff169060200190929190505050610c4a565b6040518082815260200191505060405180910390f35b3480156103cc57600080fd5b506103d5610ccb565b6040518082815260200191505060405180910390f35b3480156103f757600080fd5b5061041660048036038101908080359060200190929190505050610cd8565b6040518082815260200191505060405180910390f35b34801561043857600080fd5b50610477600480360381019080803573ffffffffffffffffffffffffffffffffffffffff16906020019092919080359060200190929190505050610cf8565b6040518082815260200191505060405180910390f35b34801561049957600080fd5b506104d860048036038101908080359060200190929190803573ffffffffffffffffffffffffffffffffffffffff169060200190929190505050610d28565b604051808215151515815260200191505060405180910390f35b3480156104fe57600080fd5b5061053d600480360381019080803573ffffffffffffffffffffffffffffffffffffffff16906020019092919080359060200190929190505050610d90565b604051808215151515815260200191505060405180910390f35b34801561056357600080fd5b5061058260048036038101908080359060200190929190505050610dbf565b604051808273ffffffffffffffffffffffffffffffffffffffff1673ffffffffffffffffffffffffffffffffffffffff16815260200191505060405180910390f35b3480156105d057600080fd5b506105d9610dfb565b6040518082815260200191505060405180910390f35b3480156105fb57600080fd5b506106246004803603810190808035906020019092919080359060200190929190505050610e0b565b604051808273ffffffffffffffffffffffffffffffffffffffff1673ffffffffffffffffffffffffffffffffffffffff16815260200191505060405180910390f35b60058181548110151561067557fe5b90600052602060002001600091509050806000018054600181600116156101000203166002900480601f01602080910402602001604051908101604052809291908181526020018280546001816001161561010002031660029004801561071d5780601f106106f25761010080835404028352916020019161071d565b820191906000526020600020905b81548152906001019060200180831161070057829003601f168201915b5050505050905081565b61072f610e58565b60006020604051908101604052808481525091506001600583908060018154018082558091505090600182039060005260206000200160009091929091909150600082015181600001908051906020019061078b929190610e6c565b5050500390503360008083815260200190815260200160002060006101000a81548173ffffffffffffffffffffffffffffffffffffffff021916908373ffffffffffffffffffffffffffffffffffffffff160217905550600160003373ffffffffffffffffffffffffffffffffffffffff1673ffffffffffffffffffffffffffffffffffffffff1681526020019081526020016000208190806001815401808255809150509060018203906000526020600020016000909192909190915055507f79ade8575884f3a0d49452aa8c5b8f85237a786d3894d4fe364510b6f05d1fbc813385604051808481526020018373ffffffffffffffffffffffffffffffffffffffff1673ffffffffffffffffffffffffffffffffffffffff16815260200180602001828103825283818151815260200191508051906020019080838360005b838110156108e75780820151818401526020810190506108cc565b50505050905090810190601f1680156109145780820380516001836020036101000a031916815260200191505b5094505050505060405180910390a1505050565b60008060058054905011905090565b6000806003600084815260200190815260200160002080549050119050919050565b600460003373ffffffffffffffffffffffffffffffffffffffff1673ffffffffffffffffffffffffffffffffffffffff168152602001908152602001600020600082815260200190815260200160002060009054906101000a900460ff161515156109c357600080fd5b3373ffffffffffffffffffffffffffffffffffffffff1660008083815260200190815260200160002060009054906101000a900473ffffffffffffffffffffffffffffffffffffffff1673ffffffffffffffffffffffffffffffffffffffff1614151515610a3057600080fd5b600360008281526020019081526020016000203390806001815401808255809150509060018203906000526020600020016000909192909190916101000a81548173ffffffffffffffffffffffffffffffffffffffff021916908373ffffffffffffffffffffffffffffffffffffffff16021790555050600260003373ffffffffffffffffffffffffffffffffffffffff1673ffffffffffffffffffffffffffffffffffffffff1681526020019081526020016000208190806001815401808255809150509060018203906000526020600020016000909192909190915055506001600460003373ffffffffffffffffffffffffffffffffffffffff1673ffffffffffffffffffffffffffffffffffffffff168152602001908152602001600020600083815260200190815260200160002060006101000a81548160ff0219169083151502179055507f73519f14cd1de52f797e7b958477f6f4ddc3f9de58752c5d7ceba3932b6b4f278133604051808381526020018273ffffffffffffffffffffffffffffffffffffffff1673ffffffffffffffffffffffffffffffffffffffff1681526020019250505060405180910390a150565b600260205281600052604060002081815481101515610c0257fe5b90600052602060002001600091509150505481565b60006020528060005260406000206000915054906101000a900473ffffffffffffffffffffffffffffffffffffffff1681565b600080600080600160008673ffffffffffffffffffffffffffffffffffffffff1673ffffffffffffffffffffffffffffffffffffffff16815260200190815260200160002092508280549050915060009350600090505b81811015610cc357610cb281610cd8565b840193508080600101915050610ca1565b505050919050565b6000600580549050905090565b600060036000838152602001908152602001600020805490509050919050565b600160205281600052604060002081815481101515610d1357fe5b90600052602060002001600091509150505481565b6000600460008373ffffffffffffffffffffffffffffffffffffffff1673ffffffffffffffffffffffffffffffffffffffff168152602001908152602001600020600084815260200190815260200160002060009054906101000a900460ff16905092915050565b60046020528160005260406000206020528060005260406000206000915091509054906101000a900460ff1681565b600080600083815260200190815260200160002060009054906101000a900473ffffffffffffffffffffffffffffffffffffffff169050919050565b6000600160058054905003905090565b600360205281600052604060002081815481101515610e2657fe5b906000526020600020016000915091509054906101000a900473ffffffffffffffffffffffffffffffffffffffff1681565b602060405190810160405280606081525090565b828054600181600116156101000203166002900490600052602060002090601f016020900481019282601f10610ead57805160ff1916838001178555610edb565b82800160010185558215610edb579182015b82811115610eda578251825591602001919060010190610ebf565b5b509050610ee89190610eec565b5090565b610f0e91905b80821115610f0a576000816000905550600101610ef2565b5090565b905600a165627a7a723058200795f41a841a73e7242f1e674302193830ef372e00e20f92f8382006aede68f30029",
  "source": "pragma solidity ^0.4.24;\n\n/**\n * @title SocialNetwork\n * @dev A very primitive implementation of a social network, with posts and likes\n */\ncontract SocialNetwork {\n    struct Post {\n        string text;\n    }\n\n    // Mapping of owner by post\n    mapping (uint => address) public postOwners;\n    // Mapping of all posts for each owner\n    mapping (address => uint[]) public postsFromAccount;\n    // Mapping of all likes (referenced by their post id) for each liker\n    mapping (address => uint[]) public postsLikedByAccount;\n    // Mapping of all likers addresses for each post\n    mapping (uint => address[]) public postLikers;\n    // Mapping of likes per post for each liker - used to have a direct\n    // data about whether a specific post has already been liked by a given\n    // address. This is faster than checking if the postLikers array for\n    // a post contains a given address (because there's no native Solidity\n    // method to do this)\n    mapping (address => mapping(uint => bool)) public postLikedByAccount;\n\n    Post[] public posts;\n\n    event NewPostAdded(uint postId, address owner, string text);\n    event NewPostLiked(uint postId, address liker);\n\n    function hasPosts() public view returns(bool _hasPosts) {\n        _hasPosts = posts.length > 0;\n    }\n\n    function totalPosts() public view returns(uint _totalPosts) {\n        _totalPosts = posts.length;\n    }\n\n    function lastPostId() public view returns(uint _postId) {\n        _postId = posts.length - 1;\n    }\n\n    function hasLikes(uint _postId) public view returns(bool _hasLikes) {\n        _hasLikes = postLikers[_postId].length > 0;\n    }\n\n    function likedBy(uint _postId, address _by) public view returns(bool _likedBy) {\n        _likedBy = postLikedByAccount[_by][_postId];\n    }\n\n    function postOwner(uint _postId) public view returns(address _owner) {\n        _owner = postOwners[_postId];\n    }\n\n    function numberOfLikesPerPost(uint _postId) public view returns(uint _numberOfLikes) {\n        _numberOfLikes = postLikers[_postId].length;\n    }\n\n    function numberOfLikesPerPoster(address _poster) public view returns(uint _numberOfLikes) {\n        uint[] storage postsIds = postsFromAccount[_poster];\n        uint numberOfPosts = postsIds.length;\n        _numberOfLikes = 0;\n\n        uint256 i = 0;\n\n        for (i; i < numberOfPosts; i++) {\n              _numberOfLikes += numberOfLikesPerPost(i);\n        }\n    }\n\n    function newPost(string _text) public {\n        // Create a new post\n        Post memory post = Post(_text);\n        // Push the post in the memory array and record its id\n        uint postId = posts.push(post) - 1;\n        // Record ownership of the post\n        postOwners[postId] = msg.sender;\n        // Add the post to the list of posts of its creator\n        postsFromAccount[msg.sender].push(postId);\n        // Emit event\n        emit NewPostAdded(postId, msg.sender, _text);\n    }\n\n    function newLike(uint _postId) public {\n        // Cannot double-like a post\n        require(!postLikedByAccount[msg.sender][_postId]);\n        // Cannot like own post\n        require(postOwners[_postId] != msg.sender);\n        // Add the liker address to the list of likers of this post\n        postLikers[_postId].push(msg.sender);\n        // Add the post to the list of posts liked by the liker\n        postsLikedByAccount[msg.sender].push(_postId);\n        // Flag the post as liked for this liker\n        postLikedByAccount[msg.sender][_postId] = true;\n        // Emit event\n        emit NewPostLiked(_postId, msg.sender);\n    }\n}\n",
  "sourcePath": "/Users/thomasvanderstraeten/code/hey/experiments/mvp-tva/backend-childchain/contracts/network/SocialNetwork.sol",
  "compiler": {
    "name": "solc",
    "version": "0.4.24+commit.e67f0147.Emscripten.clang"
  },
  "schemaVersion": "2.0.1",
  "updatedAt": "2018-07-11T09:05:38.952Z"
}